{"abi":[{"type":"constructor","inputs":[],"stateMutability":"nonpayable"},{"type":"function","name":"DOMAIN_SEPARATOR","inputs":[],"outputs":[{"name":"","type":"bytes32","internalType":"bytes32"}],"stateMutability":"view"},{"type":"function","name":"allowance","inputs":[{"name":"","type":"address","internalType":"address"},{"name":"","type":"address","internalType":"address"}],"outputs":[{"name":"","type":"uint256","internalType":"uint256"}],"stateMutability":"view"},{"type":"function","name":"approve","inputs":[{"name":"spender","type":"address","internalType":"address"},{"name":"amount","type":"uint256","internalType":"uint256"}],"outputs":[{"name":"","type":"bool","internalType":"bool"}],"stateMutability":"nonpayable"},{"type":"function","name":"balanceOf","inputs":[{"name":"","type":"address","internalType":"address"}],"outputs":[{"name":"","type":"uint256","internalType":"uint256"}],"stateMutability":"view"},{"type":"function","name":"burn","inputs":[{"name":"amount","type":"uint256","internalType":"uint256"}],"outputs":[],"stateMutability":"nonpayable"},{"type":"function","name":"decimals","inputs":[],"outputs":[{"name":"","type":"uint8","internalType":"uint8"}],"stateMutability":"view"},{"type":"function","name":"mint","inputs":[{"name":"to","type":"address","internalType":"address"},{"name":"amount","type":"uint256","internalType":"uint256"}],"outputs":[],"stateMutability":"nonpayable"},{"type":"function","name":"name","inputs":[],"outputs":[{"name":"","type":"string","internalType":"string"}],"stateMutability":"view"},{"type":"function","name":"nonces","inputs":[{"name":"","type":"address","internalType":"address"}],"outputs":[{"name":"","type":"uint256","internalType":"uint256"}],"stateMutability":"view"},{"type":"function","name":"owner","inputs":[],"outputs":[{"name":"","type":"address","internalType":"address"}],"stateMutability":"view"},{"type":"function","name":"permit","inputs":[{"name":"owner","type":"address","internalType":"address"},{"name":"spender","type":"address","internalType":"address"},{"name":"value","type":"uint256","internalType":"uint256"},{"name":"deadline","type":"uint256","internalType":"uint256"},{"name":"v","type":"uint8","internalType":"uint8"},{"name":"r","type":"bytes32","internalType":"bytes32"},{"name":"s","type":"bytes32","internalType":"bytes32"}],"outputs":[],"stateMutability":"nonpayable"},{"type":"function","name":"symbol","inputs":[],"outputs":[{"name":"","type":"string","internalType":"string"}],"stateMutability":"view"},{"type":"function","name":"totalSupply","inputs":[],"outputs":[{"name":"","type":"uint256","internalType":"uint256"}],"stateMutability":"view"},{"type":"function","name":"transfer","inputs":[{"name":"to","type":"address","internalType":"address"},{"name":"amount","type":"uint256","internalType":"uint256"}],"outputs":[{"name":"","type":"bool","internalType":"bool"}],"stateMutability":"nonpayable"},{"type":"function","name":"transferFrom","inputs":[{"name":"from","type":"address","internalType":"address"},{"name":"to","type":"address","internalType":"address"},{"name":"amount","type":"uint256","internalType":"uint256"}],"outputs":[{"name":"","type":"bool","internalType":"bool"}],"stateMutability":"nonpayable"},{"type":"event","name":"Approval","inputs":[{"name":"owner","type":"address","indexed":true,"internalType":"address"},{"name":"spender","type":"address","indexed":true,"internalType":"address"},{"name":"amount","type":"uint256","indexed":false,"internalType":"uint256"}],"anonymous":false},{"type":"event","name":"Burn","inputs":[{"name":"from","type":"address","indexed":true,"internalType":"address"},{"name":"amount","type":"uint256","indexed":false,"internalType":"uint256"}],"anonymous":false},{"type":"event","name":"Mint","inputs":[{"name":"to","type":"address","indexed":true,"internalType":"address"},{"name":"amount","type":"uint256","indexed":false,"internalType":"uint256"}],"anonymous":false},{"type":"event","name":"Transfer","inputs":[{"name":"from","type":"address","indexed":true,"internalType":"address"},{"name":"to","type":"address","indexed":true,"internalType":"address"},{"name":"amount","type":"uint256","indexed":false,"internalType":"uint256"}],"anonymous":false}],"bytecode":{"object":"0x60e060405234801561001057600080fd5b506040518060400160405280601781526020017f4d696e7461626c65204275726e61626c6520546f6b656e0000000000000000008152506040518060400160405280600381526020016213509560ea1b81525060128260009081610074919061026d565b506001610081838261026d565b5060ff81166080524660a0526100956100c9565b60c0525050600680546001600160a01b031916339081179091556100c4915069d3c21bcecceda1000000610163565b6103c7565b60007f8b73c3c69bb8fe3d512ecc4cf759cc79239f7b179b0ffacaa9a75d522b39400f60006040516100fb919061032b565b6040805191829003822060208301939093528101919091527fc89efdaa54c0f20c7adf612882df0950f5a951637e0307cdcb4c672f298b8bc660608201524660808201523060a082015260c00160405160208183030381529060405280519060200120905090565b806002600082825461017591906103a0565b90915550506001600160a01b0382166000818152600360209081526040808320805486019055518481527fddf252ad1be2c89b69c2b068fc378daa952ba7f163c4a11628f55a4df523b3ef910160405180910390a35050565b634e487b7160e01b600052604160045260246000fd5b600181811c908216806101f857607f821691505b60208210810361021857634e487b7160e01b600052602260045260246000fd5b50919050565b601f82111561026857806000526020600020601f840160051c810160208510156102455750805b601f840160051c820191505b818110156102655760008155600101610251565b50505b505050565b81516001600160401b03811115610286576102866101ce565b61029a8161029484546101e4565b8461021e565b6020601f8211600181146102ce57600083156102b65750848201515b600019600385901b1c1916600184901b178455610265565b600084815260208120601f198516915b828110156102fe57878501518255602094850194600190920191016102de565b508482101561031c5786840151600019600387901b60f8161c191681555b50505050600190811b01905550565b6000808354610339816101e4565b600182168015610350576001811461036557610395565b60ff1983168652811515820286019350610395565b86600052602060002060005b8381101561038d57815488820152600190910190602001610371565b505081860193505b509195945050505050565b808201808211156103c157634e487b7160e01b600052601160045260246000fd5b92915050565b60805160a05160c051610cd46103f660003960006104a6015260006104710152600061016a0152610cd46000f3fe608060405234801561001057600080fd5b50600436106100f55760003560e01c806342966c681161009757806395d89b411161006657806395d89b4114610239578063a9059cbb14610241578063d505accf14610254578063dd62ed3e1461026757600080fd5b806342966c68146101bb57806370a08231146101ce5780637ecebe00146101ee5780638da5cb5b1461020e57600080fd5b806323b872dd116100d357806323b872dd14610152578063313ce567146101655780633644e5151461019e57806340c10f19146101a657600080fd5b806306fdde03146100fa578063095ea7b31461011857806318160ddd1461013b575b600080fd5b610102610292565b60405161010f91906109b7565b60405180910390f35b61012b610126366004610a21565b610320565b604051901515815260200161010f565b61014460025481565b60405190815260200161010f565b61012b610160366004610a4b565b61038d565b61018c7f000000000000000000000000000000000000000000000000000000000000000081565b60405160ff909116815260200161010f565b61014461046d565b6101b96101b4366004610a21565b6104c8565b005b6101b96101c9366004610a88565b610568565b6101446101dc366004610aa1565b60036020526000908152604090205481565b6101446101fc366004610aa1565b60056020526000908152604090205481565b600654610221906001600160a01b031681565b6040516001600160a01b03909116815260200161010f565b6101026105aa565b61012b61024f366004610a21565b6105b7565b6101b9610262366004610ac3565b61061d565b610144610275366004610b36565b600460209081526000928352604080842090915290825290205481565b6000805461029f90610b69565b80601f01602080910402602001604051908101604052809291908181526020018280546102cb90610b69565b80156103185780601f106102ed57610100808354040283529160200191610318565b820191906000526020600020905b8154815290600101906020018083116102fb57829003601f168201915b505050505081565b3360008181526004602090815260408083206001600160a01b038716808552925280832085905551919290917f8c5be1e5ebec7d5bd14f71427d1e84f3dd0314c0f7b2291e5b200ac8c7c3b9259061037b9086815260200190565b60405180910390a35060015b92915050565b6001600160a01b038316600090815260046020908152604080832033845290915281205460001981146103e9576103c48382610bb9565b6001600160a01b03861660009081526004602090815260408083203384529091529020555b6001600160a01b03851660009081526003602052604081208054859290610411908490610bb9565b90915550506001600160a01b0380851660008181526003602052604090819020805487019055519091871690600080516020610c7f8339815191529061045a9087815260200190565b60405180910390a3506001949350505050565b60007f000000000000000000000000000000000000000000000000000000000000000046146104a35761049e610861565b905090565b507f000000000000000000000000000000000000000000000000000000000000000090565b6006546001600160a01b031633146105175760405162461bcd60e51b815260206004820152600d60248201526c2737ba103a34329037bbb732b960991b60448201526064015b60405180910390fd5b61052182826108fb565b816001600160a01b03167f0f6798a560793a54c3bcfe86a93cde1e73087d944c0ea20544137d41213968858260405161055c91815260200190565b60405180910390a25050565b6105723382610955565b60405181815233907fcc16f5dbb4873280815c1ee09dbd06736cffcc184412cf7a71a0fdb75d397ca59060200160405180910390a250565b6001805461029f90610b69565b336000908152600360205260408120805483919083906105d8908490610bb9565b90915550506001600160a01b03831660008181526003602052604090819020805485019055513390600080516020610c7f8339815191529061037b9086815260200190565b4284101561066d5760405162461bcd60e51b815260206004820152601760248201527f5045524d49545f444541444c494e455f45585049524544000000000000000000604482015260640161050e565b6000600161067961046d565b6001600160a01b038a811660008181526005602090815260409182902080546001810190915582517f6e71edae12b1b97f4d1f60370fef10105fa2faae0126114a169c64845d6126c98184015280840194909452938d166060840152608083018c905260a083019390935260c08083018b90528151808403909101815260e08301909152805192019190912061190160f01b6101008301526101028201929092526101228101919091526101420160408051601f198184030181528282528051602091820120600084529083018083525260ff871690820152606081018590526080810184905260a0016020604051602081039080840390855afa158015610785573d6000803e3d6000fd5b5050604051601f1901519150506001600160a01b038116158015906107bb5750876001600160a01b0316816001600160a01b0316145b6107f85760405162461bcd60e51b815260206004820152600e60248201526d24a72b20a624a22fa9a4a3a722a960911b604482015260640161050e565b6001600160a01b0390811660009081526004602090815260408083208a8516808552908352928190208990555188815291928a16917f8c5be1e5ebec7d5bd14f71427d1e84f3dd0314c0f7b2291e5b200ac8c7c3b925910160405180910390a350505050505050565b60007f8b73c3c69bb8fe3d512ecc4cf759cc79239f7b179b0ffacaa9a75d522b39400f60006040516108939190610bcc565b6040805191829003822060208301939093528101919091527fc89efdaa54c0f20c7adf612882df0950f5a951637e0307cdcb4c672f298b8bc660608201524660808201523060a082015260c00160405160208183030381529060405280519060200120905090565b806002600082825461090d9190610c6b565b90915550506001600160a01b038216600081815260036020908152604080832080548601905551848152600080516020610c7f83398151915291015b60405180910390a35050565b6001600160a01b0382166000908152600360205260408120805483929061097d908490610bb9565b90915550506002805482900390556040518181526000906001600160a01b03841690600080516020610c7f83398151915290602001610949565b602081526000825180602084015260005b818110156109e557602081860181015160408684010152016109c8565b506000604082850101526040601f19601f83011684010191505092915050565b80356001600160a01b0381168114610a1c57600080fd5b919050565b60008060408385031215610a3457600080fd5b610a3d83610a05565b946020939093013593505050565b600080600060608486031215610a6057600080fd5b610a6984610a05565b9250610a7760208501610a05565b929592945050506040919091013590565b600060208284031215610a9a57600080fd5b5035919050565b600060208284031215610ab357600080fd5b610abc82610a05565b9392505050565b600080600080600080600060e0888a031215610ade57600080fd5b610ae788610a05565b9650610af560208901610a05565b95506040880135945060608801359350608088013560ff81168114610b1957600080fd5b9699959850939692959460a0840135945060c09093013592915050565b60008060408385031215610b4957600080fd5b610b5283610a05565b9150610b6060208401610a05565b90509250929050565b600181811c90821680610b7d57607f821691505b602082108103610b9d57634e487b7160e01b600052602260045260246000fd5b50919050565b634e487b7160e01b600052601160045260246000fd5b8181038181111561038757610387610ba3565b6000808354818160011c90506001821680610be857607f821691505b602082108103610c0657634e487b7160e01b84526022600452602484fd5b808015610c1a5760018114610c2f57610c5f565b60ff1984168752821515830287019450610c5f565b60008881526020902060005b84811015610c5757815489820152600190910190602001610c3b565b505082870194505b50929695505050505050565b8082018082111561038757610387610ba356feddf252ad1be2c89b69c2b068fc378daa952ba7f163c4a11628f55a4df523b3efa2646970667358221220129e5722c3516bfb7ea7864e9613d6001e654c17b1dbab1088e165490475f27664736f6c634300081c0033","linkReferences":{}},"methodIdentifiers":{"DOMAIN_SEPARATOR()":"3644e515","allowance(address,address)":"dd62ed3e","approve(address,uint256)":"095ea7b3","balanceOf(address)":"70a08231","burn(uint256)":"42966c68","decimals()":"313ce567","mint(address,uint256)":"40c10f19","name()":"06fdde03","nonces(address)":"7ecebe00","owner()":"8da5cb5b","permit(address,address,uint256,uint256,uint8,bytes32,bytes32)":"d505accf","symbol()":"95d89b41","totalSupply()":"18160ddd","transfer(address,uint256)":"a9059cbb","transferFrom(address,address,uint256)":"23b872dd"},"id":1}